:1000000074C083C082C081C080C07FC07EC07DC0FC
:100010007CC07BC07AC079C078C077C083C075C00F
:1000200074C073C072C078C373C36EC36DC378C32A
:100030006FC376C379C39EC35FC35EC393C39AC3C2
:1000400091C30078007000680060005800500048BC
:100050000040003800300028002000180010000880
:100060000000000040008000C0000001400180014D
:10007000C001000240028002C0020003400380036E
:10008000E003007C006C00580044003000140000C5
:10009000A00080018001A000001400300014A00026
:1000A00080012002C0026003E003006C00440030C5
:1000B0000000110019001900110000008001200249
:1000C000270220022002C002C002200220022002D9
:1000D000270220028001EC00110016001100EC0044
:1000E00080012002C0026003E00311241FBECFE59F
:1000F000D2E0DEBFCDBF20E0A0E6B0E001C01D929F
:10010000A139B207E1F77CD4FEC57ACF2FB7F894B6
:100110006091600070916100809162009091630035
:100120002FBF08951F920F920FB60F9211248F9236
:10013000AF92BF92CF92EF92FF920F932F933F9384
:100140004F935F936F937F938F939F93AF93BF93DF
:10015000EF93FF936091640080E2882E9BE3A92EC9
:10016000B12C20E4C22E3BE3E32EF12C00E82BE37C
:1001700030E04091680087E890E072D160916400BF
:100180008824839448E3A42EB12C58E0C52E00E1C6
:100190002BE330E0409168008DE790E061D1609101
:1001A000640070E1872EE0E2CE2EF8E3EF2EF12C12
:1001B00000E428E330E04091680083E790E050D10C
:1001C00060916400A2E08A2EB4E0CB2E08E028E320
:1001D00030E04091680089E690E042D1809167006C
:1001E0008F5F843008F046C080936700809168007C
:1001F0008F5F8F7109F059C010926800809166007E
:100200008F5F80936600609165008F3508F050C065
:100210004091640087E890E084D14091640060914F
:1002200065008DE790E07DD14091640060916500AC
:1002300083E790E076D1409164006091650089E6A3
:1002400090E06FD1FF91EF91BF91AF919F918F910E
:100250007F916F915F914F913F912F910F91FF90FF
:10026000EF90CF90BF90AF908F900F900FBE0F90F8
:100270001F90189510926700809160009091610026
:10028000A0916200B09163000196A11DB11D809301
:10029000600090936100A0936200B093630080912E
:1002A00068008F5F8F7109F4A7CF80936800CACF71
:1002B00081E068276093650010926600A9CF19BE9F
:1002C00081E085BB82E083BF8AEF83BB80E189BF89
:1002D0000895EF92FF920F931F93CF93DF9386FFC2
:1002E0000EC084FF41C004E010E085FF48C0C4E0B8
:1002F000D0E064E0E62EF12C24E030E00DC084FF75
:1003000021C024E030E085FF25C0C4E0D0E074E0E7
:10031000E72EF12C04E010E0B90187E890E098D0D6
:10032000B8018DE790E094D0B70183E790E090D0DA
:10033000BE0189E690E0DF91CF911F910F91FF9070
:10034000EF9086C081FD34C087FD53C021E030E0CE
:1003500085FDDBCF83FF3BC042E0E42EF12C04E0BF
:1003600010E0C4E0D0E014C081FD1FC064FD1DC0DA
:1003700080FF3CC062FF3AC003E010E0B6CF83FFCD
:100380001AC024E030E054E0E52EF12CC2E0D0E0C9
:1003900061FFC2CF60FDC0CFC0E0D0E0E12CF12C06
:1003A00000E010E020E030E0B7CF02E010E09DCFA9
:1003B00022E030E0A8CF24E030E0E4E0EE2EF12CA3
:1003C00082FF11C062FF0FC0C3E0D0E0E1CF82FF27
:1003D00006C062FF04C083E0E82EF12CC0CFEE24FB
:1003E000E394F12CBCCFC1E0D0E0D2CF01E010E02B
:1003F0007CCF62FFABCF23E030E085CFFC011182E0
:10040000108262830895FB0142818427218130811B
:10041000322738233083209528232183982F9095E5
:10042000932B922B892F80954827428340958423D4
:100430000895FC0182810895FC01158214821382C3
:1004400012821182108216821782108611860895F8
:10045000FC01758364830895FC018481958108956E
:100460008F92AF92BF92CF92EF92FF920F93CF9362
:10047000DF93CDB7DEB7FC016095617081E09781B5
:10048000491708F080E0D901681779F18C9100953F
:1004900008230C9381E09085491708F080E0D7018C
:1004A0006817F9F08C91C094C822CC9281E09185B4
:1004B000491708F080E0681779F0F5018081809491
:1004C00088228082DF91CF910F91FF90EF90CF90A3
:1004D000BF90AF908F900895D5018C91882A8C920F
:1004E000F1CF8C91C82ACC92E1CF8C91082B0C9340
:1004F000D1CF8B7F019711F080E008956250710990
:1005000081E062307105C0F708950297029710F0FC
:1005100080E008956B7F81E061307105D1F380E068
:10052000F8CFCF93DF93DC0114968D919C911597B2
:100530009C01255031092230310508F4A3C08330D5
:10054000910509F49FC06D917C91119712962D91A0
:100550003C9113976217730709F4A1C041FF58C07B
:100560006115710509F454C02115310509F450C015
:10057000AB014B7F4130510509F438C1CB010297E3
:10058000029708F403C116964C911697E42FF0E0F9
:10059000EE0FFF1FEE57FF4F85919491592F5695FF
:1005A00056955F7119961C92199718961C92189778
:1005B00017961C9217976430710508F033C16230AA
:1005C000710508F049C16130710519F419965C9301
:1005D000199796958795929582958F7089279F7028
:1005E00089278F712430310508F029C12230310567
:1005F00008F036C12130310519F419968C931997FA
:100600004F5F4431B8F516964C93DF91CF91089522
:1006100016964C911697E42FF0E0EE0FFF1FEE5B5D
:10062000FF4FC591D491CE0196958795929582956D
:100630008F7089279F7089278F719D2F969596952A
:10064000C92FCF7119961C92199718961C9218975A
:1006500017961C92179767307105E8F0273031051F
:10066000B0F016968C9116978F5F16968C9316970E
:10067000803258F216961C9216972D933C93DF9178
:10068000CF91089561115FCF80E090E05CCFF901D8
:10069000ED5EFF4F0994FB01E65EFF4F099416964D
:1006A0001C92169713969C938E9312978617970712
:1006B00009F0DAC019961C92199718961C9218978F
:1006C00017961C9217978430910558F08530910544
:1006D00079F018F0069709F098CF8FE117968C9370
:1006E00094CF8230910508F04DC0019709F08DCF6D
:1006F0008FE119968C9389CF1896CC931897273051
:10070000310508F0AECFC3CF18968C931897A9CFB8
:1007100019968C931997A5CFCC2309F4ABCFA1CF11
:1007200017968C9317979DCF811198CF03C05032A5
:10073000A8F4452F51E0540FE52FF0E0EE0FFF1F16
:10074000EE5BFF4F85919491969587959295829552
:100750008F7089279F7089278F7149F316964C9364
:1007600016977CCF1796CC9317972730310508F052
:1007700078CF8DCF1996CC9319972730310508F093
:1007800070CF85CF8FE118968C933FCFC9018B7FB7
:10079000019709F0F8CE16966C911697E62FF0E0C7
:1007A000EE0FFF1FE655FF4F85919491FC01F695E2
:1007B000E795F295E295EF70EF27FF70EF27EF7165
:1007C000969596959F718F7117968C9317974130D8
:1007D0005105E1F01996EC93199718969C93189788
:1007E0006F5F603248F416966C930FCFC901029781
:1007F000029708F0C8CECFCF16961C921697129685
:100800008D919C9113978D939C93FFCE225031092B
:1008100022303105F8F619969C9319971896EC93A7
:100820001897DECF6530710509F4D0CE20F0663020
:10083000710509F0CECE17965C931797CACE253076
:10084000310509F4DACE20F02630310509F0D8CE92
:1008500017968C931797D4CE18965C931897B9CEA9
:1008600018968C931897CCCE9C0178CEDA9A8AE1B0
:100870008A95F1F700C0D09AD8988AE18A95F1F765
:1008800000C0DA988AE18A95F1F700C0D098D89A2A
:100890008AE18A95F1F700C00895DA988AE18A958D
:1008A000F1F700C0D09AD8988AE18A95F1F700C094
:1008B000DA9A8AE18A95F1F700C0D098D89A8AE14D
:1008C0008A95F1F700C0089528E030E090E814C060
:1008D000D098D89A4AE14A95F1F700C0DA9A4AE1ED
:1008E0004A95F1F700C0DA984AE14A95F1F700C05D
:1008F00096952150310951F0492F482349F7D09A54
:10090000D8984AE14A95F1F700C0E8CFD098D89A34
:100910008AE18A95F1F700C0DA9A9AE19A95F1F79F
:1009200000C089B380958170DA984AE14A95F1F761
:1009300000C00895282F98E080E0880FDA9A3AE105
:100940003A95F1F700C0C8998160DA983AE13A9592
:10095000F1F700C0915089F7222331F0D09AD8984E
:100960009AE19A95F1F700C0DA9A3AE13A95F1F7EF
:1009700000C0DA989AE19A95F1F700C0D098D89A19
:100980003AE13A95F1F700C008951F93CF93DF93B2
:10099000182FD62FC42F6ADF812F880F95DF8D2F58
:1009A00093DF8C2F91DFC82F78DF8C2FDF91CF91D1
:1009B0001F910895FF920F931F93CF93DF93D82F2A
:1009C000F62E8A01FA01108251DF8D2F880F7CDF0D
:1009D000C82F8F2D79DF8C23C82FC17047DF8D2F53
:1009E000880F816071DFC82380E0A4DFF801808375
:1009F00054DF8C2FDF91CF911F910F91FF900895BD
:100A0000CF93DF93CDB7DEB727970FB6F894DEBF4D
:100A10000FBECDBF1F8214BEA8959EE088E10FB621
:100A2000F894A89581BD0FBE91BD8FEF8BBB9CEF55
:100A30009ABB88BB8FE787BB19BE81E085BB82E08C
:100A400083BF8AEF83BB80E189BF87E890E0F4DC55
:100A50008DE790E0F1DC83E790E0EEDC89E690E062
:100A6000EBDC60E070E087E890E0F2DC60E070E0F2
:100A70008DE790E0EDDC60E070E083E790E0E8DC9B
:100A800060E070E089E690E0E3DCA8954FE366E083
:100A900080E27BDF4FEF67E080E277DF40E062E0FB
:100AA00080E273DFAE01495F5F4F60E080E282DF8A
:100AB000882309F410C19F819F77C99B1CC180E8DE
:100AC000F92EF82A8E010C5F1F4F6F2DC80196DC9E
:100AD000F3FE0BC18091640082608093640080917A
:100AE0006400F7FCF4C08E7F80936400AE01495F20
:100AF0005F4F61E080E25EDF882309F4E4C06F812C
:100B0000CE0101967BDC78945AE0A52EB12C40E012
:100B100050E060E070EFEEE39E2EA8958FB7F8945A
:100B2000C0906000D0906100E0906200F09063009F
:100B30008FBFD701C601841B950BA60BB70BC397BC
:100B4000A105B10550F3AE01495F5F4F60E080E25F
:100B500031DF882359F08F81982F9F779F83C99B1E
:100B600094C080E8892B8F83B8014DDCAE01495FCA
:100B70005F4F61E080E21EDF811181C0CE010196EE
:100B800058DC882EC80155DC782E7924B824B6FCB0
:100B900064C090E08091640073FE66C082608093C0
:100BA00064008091640077FC66C08E7F809364004F
:100BB00086FE45C0992309F46AC030E8B32E4B2D58
:100BC00062E080E2E2DE8FE097E20197F1F700C099
:100BD0000000AE01495F5F4F61E080E2EBDE811112
:100BE0006CC0AE01495F5F4F61E080E2E3DE8111DE
:100BF0005EC0AE01495F5F4F61E080E2DBDE8111E4
:100C000050C0AE01495F5F4F61E080E2D3DE8111E9
:100C100042C0CE0101960DDC682E86FF05C064FC43
:100C200003C09B2D9064B92E4B2D62E080E2ADDEB7
:100C3000AA2079F0AA94B82CB701A6016ECF911121
:100C400044C0682CB12C4B2D62E080E29EDEA110E6
:100C5000F1CF672D862D3DDBEECF91E044E0A42E51
:100C60008091640073FC9ACF8D7F809364008091A3
:100C7000640077FE9ACF81608093640099CFBE01B3
:100C80006F5F7F4F8F81BFDB79CF80E06BCF682CA8
:100C900080E8B82EC4CFBE016F5F7F4F8F81B3DB7A
:100CA000B8CFBE016F5F7F4F8F81ADDBAACFBE0192
:100CB0006F5F7F4F8F81A7DB9CCFBE016F5F7F4F40
:100CC0008F81A1DB8ECF60E01BCFB12C78CF81600C
:100CD000809364000BCF8E010C5F1F4FC9990DC02C
:100CE00064E0C8018BDB94E0F92E809164008D7F75
:100CF00080936400F4CE80E0E3CE64E8C8017EDB3C
:0A0D000024E8F22EF2CFF894FFCFA2
:00000001FF
